:1000000009C016C05BC0AAC013C012C011C010C086
:100010000FC00EC011241FBECFE9CDBF10E0A0E677
:10002000B0E001C01D92AF36B107E1F712D1A5C112
:10003000E7CFE199FECF8EBBE09A8DB308959FB5CF
:1000400090689FBD809361002091610030E08091B5
:100050006600281B3109CB016DE170E055D1FC0130
:10006000B90164D170936E0060936D0037FF03C0D7
:10007000309521953F4FCF01B90158D1359527953E
:1000800082179307D4F080916D0090916E0018163E
:10009000190654F480916D0090916E000196909332
:1000A0006E0080936D00089580916D0090916E00B8
:1000B000019790936E0080936D0008951F920F92A8
:1000C0000FB60F9211242F933F934F935F936F932B
:1000D0007F938F939F93AF93BF93EF93FF93809101
:1000E0006A00882351F58FE080936A0020916600B2
:1000F00086B390E0809590958A709070892B89F0F6
:10010000809162009091630090936C0080936B00EB
:10011000B19903C0209165000BC0B39909C020E0DC
:1001200007C0B49905C010926C0010926B002FEFBD
:1001300060916400822F70E082DFFF91EF91BF91A8
:10014000AF919F918F917F916F915F914F913F916F
:100150002F910F900FBE0F901F9018951F920F9226
:100160000FB60F9211242F933F934F935F936F938A
:100170007F938F939F93AF93BF93EF93FF93809160
:100180006A00882329F080916A00815080936A0078
:10019000809167008F5F809367008091670088235C
:1001A000D9F480916B0090916C00892BA9F080911B
:1001B0006B0090916C00019790936C0080936B00A2
:1001C00080916B0090916C00892B31F460916800F4
:1001D000709169008FEF33DF809160008F5F8093B3
:1001E000600060916D0070916E0090E09FD0892B4F
:1001F000F9F490916600809161009817C9F08091A0
:100200006100981710F49F5F01C0915090936600B1
:100210008091660086BF882329F48FB58F778FBDC4
:10022000C09806C08F3F21F48FB58F778FBDC09ADD
:10023000FF91EF91BF91AF919F918F917F916F91BE
:100240005F914F913F912F910F900FBE0F901F9094
:10025000189580E090E069E170E040D090936300F1
:1002600080936200E199FECF82E08EBBE09A8DB36D
:1002700090E064E670E048D0909369008093680055
:10028000E199FECF83E08EBBE09A8DB3809364004A
:10029000E199FECF84E08EBBE09A8DB38093650038
:1002A000B89A87B3817E87BB88B38A6188BB89B7D8
:1002B000826089BF8BB780628BBF85B38A6185BB43
:1002C00083B7836083BF8FB583688FBD8FEF8093C3
:1002D00066008093610086BF7894FFCFDF92EF9233
:1002E000FF920F931F937B018C01FB010995D82E80
:1002F000C8010196F7010995982F8D2D1F910F9137
:10030000FF90EF90DF9008955527002480FF02C0F2
:10031000060E571F660F771F6115710521F0969520
:100320008795009799F7952F802D089597FB092EB3
:1003300007260AD077FD04D00CD006D000201AF48E
:10034000709561957F4F0895F6F7909581959F4F31
:100350000895AA1BBB1B51E107C0AA1FBB1FA6170C
:10036000B70710F0A61BB70B881F991F5A95A9F75E
:0E03700080959095BC01CD010895F894FFCFC3
:00000001FF
